:100000000DC100001DC100001BC1000019C100008E
:1000100017C1000015C1000013C1000011C100008C
:100020000FC100000DC100000BC1000009C100009C
:1000300007C1000005C1000003C1000001C10000AC
:10004000FFC00000FDC00000FBC00000F9C00000C0
:10005000F7C00000F5C00000F3C00000F1C00000D0
:10006000EFC00000EDC00000EBC00000E9C00000E0
:10007000E7C00000E5C00000E3C00000E1C00000F0
:10008000DFC00000DDC00000DBC00000D9C0000000
:10009000D7C00000D5C00000D3C00000C3C400001A
:1000A000D7C40000EBC40000FFC40000C9C00000BA
:1000B000C7C00000C5C00000C3C00000C1C0000030
:1000C000BFC00000BDC00000BBC00000B9C0000040
:1000D000B7C00000B5C00000B3C00000B1C0000050
:1000E000AFC00000ADC00000ABC00000A9C0000060
:1000F000A7C00000A5C00000A3C00000A1C0000070
:100100009FC000009DC000009BC0000099C000007F
:1001100097C0000095C0000093C0000091C000008F
:100120008FC000008DC000008BC0000089C000009F
:1001300087C0000085C0000083C0000081C00000AF
:100140007FC000007DC000007BC0000079C00000BF
:1001500077C0000075C0000073C0000071C00000CF
:100160006FC000006DC000006BC0000069C00000DF
:1001700067C0000065C0000063C0000061C00000EF
:100180005FC000005DC000005BC0000059C00000FF
:1001900057C0000055C0000053C0000051C000000F
:1001A00099C40000BEC400004BC0000049C000005C
:1001B00047C0000045C0000043C0000041C000002F
:1001C0003FC000003DC000003BC0000039C000003F
:1001D00037C0000035C0000033C0000031C000004F
:1001E0002FC000002DC000002BC0000029C000005F
:1001F00027C0000025C0000023C00000647A6961A8
:100200006C61206374726C3400647A69616C612083
:100210006374726C310079200078200011241FBEB5
:10022000CFEFCDBFDFE3DEBF00E00CBF20E2A0E0F8
:10023000B0E201C01D92A830B207E1F799D426C5FB
:10024000DFCEE0EAF4E088EF818381E0828384837B
:1002500083E28583E0E8F6E088E3808B818B089574
:1002600096ED9093A604E0EAF4E0948196FFFDCF2A
:100270008093A704E0EAF4E0848186FFFDCF6093D9
:10028000A704E0EAF4E0848186FFFDCF83E0809359
:10029000A30481E008956FE680E2E2DF882369F03D
:1002A0001BD289E092E000D22FE38DE093E0215051
:1002B00080409040E1F700C0000060E283E2D0DFC0
:1002C000882369F009D28CEF91E0EED12FE38DE025
:1002D00093E0215080409040E1F700C00000089575
:1002E00096ED9093A604E0EAF4E0948196FFFDCFAA
:1002F0008093A704E0EAF4E0848186FFFDCF87EDD8
:100300008093A604E0EAF4E084818823ECF7E0EA35
:10031000F4E0878197E0938308952F923F924F9264
:100320005F926F927F928F929F92AF92BF92CF9285
:10033000DF92EF92FF920F931F93CF93DF93CDB78E
:10034000DEB72A97CDBFDEBF8887998788E2C8DFEE
:10035000782E89E2C5DF882E8AE2C2DF582E8BE232
:10036000BFDF982E8CE2BCDF89838DE2B9DFE82FF6
:10037000282D30E040E050E060E070E080E090E068
:10038000AFE778D431F12CF1A1E868D408E044D487
:10039000A22EB32EC42ED52EE62EF72E082F192FFF
:1003A000272D30E040E050E060E070E080E090E039
:1003B0004CD43058410951096109710981099109E9
:1003C000222E332E442E752E862E7A87F82F9A836E
:1003D00023C0282D30E040E050E060E070E080E095
:1003E00090E008E019D4A22EB32EC42ED52EE62E0E
:1003F000F72E082F192F272D30E040E050E060E065
:1004000070E080E090E021D4222E332E442E752E11
:10041000862E7A87F82F9A83292D30E040E050E02D
:1004200060E070E080E090E0AFE724D431F12CF19F
:10043000A1E814D408E0F0D3A22EB32EC42ED52EFA
:10044000E62EF72E082F192F252D30E040E050E042
:1004500060E070E080E090E0F8D330584109510945
:100460006109710981099109922E532E4B835C8396
:100470006D837E838F83692E23C0292D30E040E079
:1004800050E060E070E080E090E008E0C5D3A22E8C
:10049000B32EC42ED52EE62EF72E082F192F252D7C
:1004A00030E040E050E060E070E080E090E0CDD3EC
:1004B000922E532E4B835C836D837E838F83692EB4
:1004C0002E2F30E040E050E060E070E080E090E00F
:1004D000AFE7D0D3F1F0ECF0A1E8C0D308E09CD3B3
:1004E000A22EB32EC42ED52EE62EF72E082F192FAE
:1004F000298130E040E050E060E070E080E090E092
:10050000A4D3305841095109610971098109910940
:100510001BC02E2F30E040E050E060E070E080E053
:1005200090E008E079D3A22EB32EC42ED52EE62E6D
:10053000F72E082F192F298130E040E050E060E0CD
:1005400070E080E090E081D3A885B9852C92119667
:100550003C92119712964C92129713967C92139795
:1005600014968C921497EA851596EC931597169627
:10057000FC931697FA811796FC93179718969C92FE
:10058000189719965C921997EB811A96EC931A9723
:10059000FC811B96FC931B97ED811C96EC931C979A
:1005A000FE811D96FC931D97EF811E96EC931E977E
:1005B0001F966C921F9750962C93509751963C9390
:1005C000519752964C93529753965C9353975496E7
:1005D0006C93549755967C93559756968C93569753
:1005E00057969C935797CD012A96CDBFDEBFDF91DA
:1005F000CF911F910F91FF90EF90DF90CF90BF9020
:10060000AF909F908F907F906F905F904F903F90B2
:100610002F90089580FF04C090E19093450603C099
:1006200090E19093460681FF04C090E290934506C6
:1006300003C090E29093460682FF04C090E490933A
:10064000450603C090E49093460683FF04C080E80B
:1006500080934506089580E88093460608950F9399
:100660001F93CF93DF93082FC0E4D6E018E01D83DB
:1006700082958F70CFDF1E8300001D83802FCADF1D
:100680001E8381E28A95F1F70000DF91CF911F91DF
:100690000F91089594E090934606E1CF089594E079
:1006A00090934506DCCF0895CF93DF93EC0121961C
:1006B000FC018491882331F0F2DFFE0184912196C0
:1006C0008111FACFDF91CF91089590E4699F800D59
:1006D00011248068DFCF089581E0DCDF87EE93E0AE
:1006E0000197F1F700C000000895FF920F931F9348
:1006F000CF93DF93E0E4F6E08CEF818383EC99E025
:100700000197F1F700C000008CE08683C3E000E4AD
:1007100016E0D8E0FD2EF801F58283E07BDFF801DA
:10072000D68383EC99E00197F1F700C00000C15037
:1007300091F7C0E4D6E018E01D8382E06BDF1E83F2
:10074000E3EFF1E03197F1F700C0000088E2A2DFAB
:1007500088E0A0DF81E09EDF87EE93E00197F1F76C
:1007600000C0000086E096DF8CE094DFDF91CF913F
:100770001F910F91FF9008958F929F92AF92BF9219
:10078000EF92FF921F93CF93DF93CDB7DEB72A97F7
:10079000CDBFDEBF611571058105910519F480E3B8
:1007A0007EDF2FC010E00F2EFAE08F2E912CA12CAF
:1007B000B12CF02DEE24E394F12CEC0EFD1EE10E95
:1007C000F11C17FDFA94A501940104D2F70160838E
:1007D000622F732F842F952F1F5F6115710581057F
:1007E000910541F711506AF0E1E0F0E0EC0FFD1FD8
:1007F000E10FF11D17FDFA958081805D50DF1150EA
:100800009AF72A96CDBFDEBFDF91CF911F91FF905F
:10081000EF90BF90AF909F908F900895AAECB1E0B9
:1008200092E09C93E82FF0E084911C9208950F933E
:100830001F93CF93DF93E0E5F0E088E0858380812C
:1008400080618083818184FFFDCFE0E4F0E014E0EB
:1008500010831183C0E4D2E01C8300E1098380E2AD
:10086000DDDF8C8781E2DADF8D870A831B8281E0FE
:10087000888397E09093A200E0E2F6E032E03283D2
:1008800088A328E029A38E8393E09AA3828388A774
:1008900019A63E839AA7128388AB09AB1E839AAB35
:1008A000128388AF88E189AF2E839AAF7894DF9165
:1008B000CF911F910F910895E0E6F6E088E38183E0
:1008C00080E2868380E18683E0E0F9E083E981834A
:1008D00084E690E086A397A316A617A681E08083FE
:1008E0000895E0E6F6E087E0818382E0868384E095
:1008F000868310922809109229090895082E000C69
:10090000990B80932E0990932F09611107C0E0E69F
:10091000F6E080E2868380E186830895613039F4D1
:10092000E0E6F6E080E2858380E185830895623029
:1009300039F4E0E6F6E080E2868380E1858308957D
:10094000E0E6F6E080E2858380E186830895082E64
:10095000000C990B8093280990932909611107C015
:10096000E0E6F6E082E0868384E0868308956130E5
:1009700039F4E0E6F6E082E0858384E0858308953B
:10098000623039F4E0E6F6E082E0868384E0858335
:100990000895E0E6F6E082E0858384E086830895AA
:1009A000CF93DF93C0EAD6E08CE08A8384E08A8725
:1009B00028E02B878AE18A8B8B8B85E08987E0E4AE
:1009C000F6E08BE1808B818BE0E8F1E090E69083AC
:1009D0009FE09087A0E0B8E02C9328E613962C9334
:1009E000888B898B88E782839287E0E0FBE08AE04E
:1009F00080838AE6838360DF74DFE0E8F6E080EFDF
:100A00008083868380EE88838E836FDE10DFDF91A4
:100A1000CF91089580E48093A706089580E880939D
:100A2000A70608951F920F920FB60F9211248F936D
:100A30009F93809150029091510280930420909353
:100A400005209F918F910F900FBE0F901F901895CA
:100A50001F920F920FB60F9211248F939F93809144
:100A600052029091530280930620909307209F9109
:100A70008F910F900FBE0F901F9018951F920F929D
:100A80000FB60F9211248F939F93809154029091EF
:100A9000550280930020909301209F918F910F9099
:100AA0000FBE0F901F9018951F920F920FB60F92C6
:100AB00011248F939F9380915602909157028093B7
:100AC0000220909303209F918F910F900FBE0F9063
:100AD0001F9018951F920F920FB60F9211240BB60C
:100AE0000F922F933F934F935F936F937F938F93C7
:100AF0009F93AF93BF93EF93FF9390DFFF91EF919D
:100B0000BF91AF919F918F917F916F915F914F9125
:100B10003F912F910F900BBE0F900FBE0F901F9023
:100B200018951F920F920FB60F9211240BB60F92C9
:100B30002F933F934F935F936F937F938F939F93E5
:100B4000AF93BF93EF93FF9365DFFF91EF91BF9159
:100B5000AF919F918F917F916F915F914F913F9155
:100B60002F910F900BBE0F900FBE0F901F901895F6
:100B7000CF93DF93CDB7DEB76897CDBFDEBF10DF71
:100B800049DF60E084E1E3DE60E084E1B7DE59DB69
:100B900082DBCE010196C1DB9FDD89E192E084DD3D
:100BA00069817A818B819C81E7DD61E080E08DDD68
:100BB00086E192E079DD69857A858B859C85DCDD2F
:100BC0002FE38DE093E0215080409040E1F700C09A
:100BD0000000DFCFA1E21A2EAA1BBB1BFD010DC036
:100BE000AA1FBB1FEE1FFF1FA217B307E407F507DD
:100BF00020F0A21BB30BE40BF50B661F771F881FB9
:100C0000991F1A9469F760957095809590959B014E
:100C1000AC01BD01CF0108950F93083090F0982FDB
:100C2000872F762F652F542F432F322F22270850DE
:100C3000F4CF220F331F441F551F661F771F881FD5
:100C4000991F0A95B2F70F9108952A0D3B1D4C1D6F
:100C50005D1D6E1D7F1D801F911F08950024A7FD3F
:100C600000942A0F301D401D501D601D701D801DF9
:100C7000901D08950024A7FD00942A173005400513
:100C8000500560057005800590050895F894FFCF24
:00000001FF
